{
  "address": "0x5FbDB2315678afecb367f032d93F642f64180aa3",
  "abi": [
    {
      "inputs": [
        {
          "internalType": "string",
          "name": "_uri",
          "type": "string"
        },
        {
          "internalType": "bytes32",
          "name": "_merkleroot",
          "type": "bytes32"
        },
        {
          "internalType": "address",
          "name": "_proxyRegistryAddress",
          "type": "address"
        },
        {
          "internalType": "uint32",
          "name": "_maxSupply",
          "type": "uint32"
        },
        {
          "internalType": "uint32",
          "name": "_amountForDevs",
          "type": "uint32"
        }
      ],
      "stateMutability": "nonpayable",
      "type": "constructor"
    },
    {
      "anonymous": false,
      "inputs": [
        {
          "indexed": true,
          "internalType": "address",
          "name": "owner",
          "type": "address"
        },
        {
          "indexed": true,
          "internalType": "address",
          "name": "approved",
          "type": "address"
        },
        {
          "indexed": true,
          "internalType": "uint256",
          "name": "tokenId",
          "type": "uint256"
        }
      ],
      "name": "Approval",
      "type": "event"
    },
    {
      "anonymous": false,
      "inputs": [
        {
          "indexed": true,
          "internalType": "address",
          "name": "owner",
          "type": "address"
        },
        {
          "indexed": true,
          "internalType": "address",
          "name": "operator",
          "type": "address"
        },
        {
          "indexed": false,
          "internalType": "bool",
          "name": "approved",
          "type": "bool"
        }
      ],
      "name": "ApprovalForAll",
      "type": "event"
    },
    {
      "anonymous": false,
      "inputs": [
        {
          "indexed": true,
          "internalType": "address",
          "name": "previousOwner",
          "type": "address"
        },
        {
          "indexed": true,
          "internalType": "address",
          "name": "newOwner",
          "type": "address"
        }
      ],
      "name": "OwnershipTransferred",
      "type": "event"
    },
    {
      "anonymous": false,
      "inputs": [
        {
          "indexed": false,
          "internalType": "address",
          "name": "account",
          "type": "address"
        }
      ],
      "name": "Paused",
      "type": "event"
    },
    {
      "anonymous": false,
      "inputs": [
        {
          "indexed": true,
          "internalType": "address",
          "name": "from",
          "type": "address"
        },
        {
          "indexed": true,
          "internalType": "address",
          "name": "to",
          "type": "address"
        },
        {
          "indexed": true,
          "internalType": "uint256",
          "name": "tokenId",
          "type": "uint256"
        }
      ],
      "name": "Transfer",
      "type": "event"
    },
    {
      "anonymous": false,
      "inputs": [
        {
          "indexed": false,
          "internalType": "address",
          "name": "account",
          "type": "address"
        }
      ],
      "name": "Unpaused",
      "type": "event"
    },
    {
      "inputs": [],
      "name": "AUCTION_DROP_INTERVAL",
      "outputs": [
        {
          "internalType": "uint64",
          "name": "",
          "type": "uint64"
        }
      ],
      "stateMutability": "view",
      "type": "function"
    },
    {
      "inputs": [],
      "name": "AUCTION_DROP_PER_STEP",
      "outputs": [
        {
          "internalType": "uint64",
          "name": "",
          "type": "uint64"
        }
      ],
      "stateMutability": "view",
      "type": "function"
    },
    {
      "inputs": [],
      "name": "AUCTION_END_PRICE",
      "outputs": [
        {
          "internalType": "uint64",
          "name": "",
          "type": "uint64"
        }
      ],
      "stateMutability": "view",
      "type": "function"
    },
    {
      "inputs": [],
      "name": "AUCTION_PRICE_CURVE_LENGTH",
      "outputs": [
        {
          "internalType": "uint64",
          "name": "",
          "type": "uint64"
        }
      ],
      "stateMutability": "view",
      "type": "function"
    },
    {
      "inputs": [],
      "name": "AUCTION_START_PRICE",
      "outputs": [
        {
          "internalType": "uint64",
          "name": "",
          "type": "uint64"
        }
      ],
      "stateMutability": "view",
      "type": "function"
    },
    {
      "inputs": [
        {
          "internalType": "address",
          "name": "",
          "type": "address"
        }
      ],
      "name": "_amountMinted",
      "outputs": [
        {
          "internalType": "uint256",
          "name": "",
          "type": "uint256"
        }
      ],
      "stateMutability": "view",
      "type": "function"
    },
    {
      "inputs": [],
      "name": "amountForDevs",
      "outputs": [
        {
          "internalType": "uint32",
          "name": "",
          "type": "uint32"
        }
      ],
      "stateMutability": "view",
      "type": "function"
    },
    {
      "inputs": [
        {
          "internalType": "address",
          "name": "to",
          "type": "address"
        },
        {
          "internalType": "uint256",
          "name": "tokenId",
          "type": "uint256"
        }
      ],
      "name": "approve",
      "outputs": [],
      "stateMutability": "nonpayable",
      "type": "function"
    },
    {
      "inputs": [
        {
          "internalType": "uint64",
          "name": "_quantity",
          "type": "uint64"
        }
      ],
      "name": "auctionMint",
      "outputs": [],
      "stateMutability": "payable",
      "type": "function"
    },
    {
      "inputs": [
        {
          "internalType": "address",
          "name": "owner",
          "type": "address"
        }
      ],
      "name": "balanceOf",
      "outputs": [
        {
          "internalType": "uint256",
          "name": "",
          "type": "uint256"
        }
      ],
      "stateMutability": "view",
      "type": "function"
    },
    {
      "inputs": [
        {
          "internalType": "uint256",
          "name": "firstTokenId",
          "type": "uint256"
        },
        {
          "internalType": "uint256",
          "name": "lastTokenId",
          "type": "uint256"
        }
      ],
      "name": "burn",
      "outputs": [],
      "stateMutability": "nonpayable",
      "type": "function"
    },
    {
      "inputs": [
        {
          "internalType": "uint64",
          "name": "_quantity",
          "type": "uint64"
        }
      ],
      "name": "devMint",
      "outputs": [],
      "stateMutability": "nonpayable",
      "type": "function"
    },
    {
      "inputs": [
        {
          "internalType": "uint64",
          "name": "_allowlistPrice",
          "type": "uint64"
        },
        {
          "internalType": "uint64",
          "name": "_publicPrice",
          "type": "uint64"
        },
        {
          "internalType": "uint32",
          "name": "_publicSaleStartTime",
          "type": "uint32"
        }
      ],
      "name": "endAuctionAndSetNonAuctionSaleInfo",
      "outputs": [],
      "stateMutability": "nonpayable",
      "type": "function"
    },
    {
      "inputs": [
        {
          "internalType": "uint256",
          "name": "tokenId",
          "type": "uint256"
        }
      ],
      "name": "getApproved",
      "outputs": [
        {
          "internalType": "address",
          "name": "",
          "type": "address"
        }
      ],
      "stateMutability": "view",
      "type": "function"
    },
    {
      "inputs": [
        {
          "internalType": "uint64",
          "name": "_saleStartTime",
          "type": "uint64"
        }
      ],
      "name": "getAuctionPrice",
      "outputs": [
        {
          "internalType": "uint64",
          "name": "",
          "type": "uint64"
        }
      ],
      "stateMutability": "view",
      "type": "function"
    },
    {
      "inputs": [
        {
          "internalType": "uint256",
          "name": "_tokenId",
          "type": "uint256"
        }
      ],
      "name": "getOwnershipData",
      "outputs": [
        {
          "internalType": "address",
          "name": "",
          "type": "address"
        }
      ],
      "stateMutability": "view",
      "type": "function"
    },
    {
      "inputs": [
        {
          "internalType": "address",
          "name": "_owner",
          "type": "address"
        }
      ],
      "name": "getTokenBalance",
      "outputs": [
        {
          "internalType": "uint256[]",
          "name": "",
          "type": "uint256[]"
        }
      ],
      "stateMutability": "view",
      "type": "function"
    },
    {
      "inputs": [
        {
          "internalType": "address",
          "name": "owner",
          "type": "address"
        },
        {
          "internalType": "address",
          "name": "operator",
          "type": "address"
        }
      ],
      "name": "isApprovedForAll",
      "outputs": [
        {
          "internalType": "bool",
          "name": "",
          "type": "bool"
        }
      ],
      "stateMutability": "view",
      "type": "function"
    },
    {
      "inputs": [
        {
          "internalType": "uint64",
          "name": "_publicPriceWei",
          "type": "uint64"
        },
        {
          "internalType": "uint256",
          "name": "_publicSaleKey",
          "type": "uint256"
        },
        {
          "internalType": "uint32",
          "name": "_publicSaleStartTime",
          "type": "uint32"
        }
      ],
      "name": "isPublicSaleOn",
      "outputs": [
        {
          "internalType": "bool",
          "name": "",
          "type": "bool"
        }
      ],
      "stateMutability": "view",
      "type": "function"
    },
    {
      "inputs": [],
      "name": "maxSupply",
      "outputs": [
        {
          "internalType": "uint256",
          "name": "",
          "type": "uint256"
        }
      ],
      "stateMutability": "view",
      "type": "function"
    },
    {
      "inputs": [],
      "name": "name",
      "outputs": [
        {
          "internalType": "string",
          "name": "",
          "type": "string"
        }
      ],
      "stateMutability": "view",
      "type": "function"
    },
    {
      "inputs": [],
      "name": "owner",
      "outputs": [
        {
          "internalType": "address",
          "name": "",
          "type": "address"
        }
      ],
      "stateMutability": "view",
      "type": "function"
    },
    {
      "inputs": [
        {
          "internalType": "uint256",
          "name": "tokenId",
          "type": "uint256"
        }
      ],
      "name": "ownerOf",
      "outputs": [
        {
          "internalType": "address",
          "name": "",
          "type": "address"
        }
      ],
      "stateMutability": "view",
      "type": "function"
    },
    {
      "inputs": [],
      "name": "paused",
      "outputs": [
        {
          "internalType": "bool",
          "name": "",
          "type": "bool"
        }
      ],
      "stateMutability": "view",
      "type": "function"
    },
    {
      "inputs": [
        {
          "internalType": "uint64",
          "name": "_quantity",
          "type": "uint64"
        },
        {
          "internalType": "bytes32[]",
          "name": "_proof",
          "type": "bytes32[]"
        }
      ],
      "name": "preSaleMint",
      "outputs": [],
      "stateMutability": "payable",
      "type": "function"
    },
    {
      "inputs": [
        {
          "internalType": "uint64",
          "name": "_quantity",
          "type": "uint64"
        },
        {
          "internalType": "uint256",
          "name": "callerPublicSaleKey",
          "type": "uint256"
        }
      ],
      "name": "publicSaleMint",
      "outputs": [],
      "stateMutability": "payable",
      "type": "function"
    },
    {
      "inputs": [],
      "name": "renounceOwnership",
      "outputs": [],
      "stateMutability": "nonpayable",
      "type": "function"
    },
    {
      "inputs": [],
      "name": "root",
      "outputs": [
        {
          "internalType": "bytes32",
          "name": "",
          "type": "bytes32"
        }
      ],
      "stateMutability": "view",
      "type": "function"
    },
    {
      "inputs": [
        {
          "internalType": "address",
          "name": "from",
          "type": "address"
        },
        {
          "internalType": "address",
          "name": "to",
          "type": "address"
        },
        {
          "internalType": "uint256",
          "name": "tokenId",
          "type": "uint256"
        }
      ],
      "name": "safeTransferFrom",
      "outputs": [],
      "stateMutability": "nonpayable",
      "type": "function"
    },
    {
      "inputs": [
        {
          "internalType": "address",
          "name": "from",
          "type": "address"
        },
        {
          "internalType": "address",
          "name": "to",
          "type": "address"
        },
        {
          "internalType": "uint256",
          "name": "tokenId",
          "type": "uint256"
        },
        {
          "internalType": "bytes",
          "name": "_data",
          "type": "bytes"
        }
      ],
      "name": "safeTransferFrom",
      "outputs": [],
      "stateMutability": "nonpayable",
      "type": "function"
    },
    {
      "inputs": [],
      "name": "saleConfig",
      "outputs": [
        {
          "internalType": "uint32",
          "name": "auctionSaleStartTime",
          "type": "uint32"
        },
        {
          "internalType": "uint32",
          "name": "publicSaleStartTime",
          "type": "uint32"
        },
        {
          "internalType": "uint64",
          "name": "allowlistPrice",
          "type": "uint64"
        },
        {
          "internalType": "uint64",
          "name": "publicPrice",
          "type": "uint64"
        },
        {
          "internalType": "uint256",
          "name": "publicSaleKey",
          "type": "uint256"
        },
        {
          "internalType": "uint32",
          "name": "auctionSaleAmountLimit",
          "type": "uint32"
        },
        {
          "internalType": "uint32",
          "name": "preSaleAmountPerAddress",
          "type": "uint32"
        },
        {
          "internalType": "uint32",
          "name": "maxAmountPerAddress",
          "type": "uint32"
        }
      ],
      "stateMutability": "view",
      "type": "function"
    },
    {
      "inputs": [
        {
          "internalType": "address",
          "name": "operator",
          "type": "address"
        },
        {
          "internalType": "bool",
          "name": "approved",
          "type": "bool"
        }
      ],
      "name": "setApprovalForAll",
      "outputs": [],
      "stateMutability": "nonpayable",
      "type": "function"
    },
    {
      "inputs": [
        {
          "internalType": "string",
          "name": "baseURI_",
          "type": "string"
        }
      ],
      "name": "setBaseURI",
      "outputs": [],
      "stateMutability": "nonpayable",
      "type": "function"
    },
    {
      "inputs": [
        {
          "internalType": "uint256",
          "name": "_maxSupply",
          "type": "uint256"
        }
      ],
      "name": "setMaxSupply",
      "outputs": [],
      "stateMutability": "nonpayable",
      "type": "function"
    },
    {
      "inputs": [
        {
          "internalType": "bytes32",
          "name": "_merkleroot",
          "type": "bytes32"
        }
      ],
      "name": "setMerkleRoot",
      "outputs": [],
      "stateMutability": "nonpayable",
      "type": "function"
    },
    {
      "inputs": [
        {
          "internalType": "uint256",
          "name": "_key",
          "type": "uint256"
        }
      ],
      "name": "setPublicSaleKey",
      "outputs": [],
      "stateMutability": "nonpayable",
      "type": "function"
    },
    {
      "inputs": [
        {
          "internalType": "uint32",
          "name": "_auctionSaleStartTime",
          "type": "uint32"
        },
        {
          "internalType": "uint32",
          "name": "_auctionSaleAmountLimit",
          "type": "uint32"
        },
        {
          "internalType": "uint32",
          "name": "_preSaleAmountPerAddress",
          "type": "uint32"
        },
        {
          "internalType": "uint32",
          "name": "_maxAmountPerAddress",
          "type": "uint32"
        }
      ],
      "name": "setSaleConfig",
      "outputs": [],
      "stateMutability": "nonpayable",
      "type": "function"
    },
    {
      "inputs": [
        {
          "internalType": "bytes4",
          "name": "interfaceId",
          "type": "bytes4"
        }
      ],
      "name": "supportsInterface",
      "outputs": [
        {
          "internalType": "bool",
          "name": "",
          "type": "bool"
        }
      ],
      "stateMutability": "view",
      "type": "function"
    },
    {
      "inputs": [],
      "name": "symbol",
      "outputs": [
        {
          "internalType": "string",
          "name": "",
          "type": "string"
        }
      ],
      "stateMutability": "view",
      "type": "function"
    },
    {
      "inputs": [],
      "name": "togglePause",
      "outputs": [],
      "stateMutability": "nonpayable",
      "type": "function"
    },
    {
      "inputs": [
        {
          "internalType": "uint256",
          "name": "index",
          "type": "uint256"
        }
      ],
      "name": "tokenByIndex",
      "outputs": [
        {
          "internalType": "uint256",
          "name": "tokenId",
          "type": "uint256"
        }
      ],
      "stateMutability": "view",
      "type": "function"
    },
    {
      "inputs": [
        {
          "internalType": "address",
          "name": "owner",
          "type": "address"
        },
        {
          "internalType": "uint256",
          "name": "index",
          "type": "uint256"
        }
      ],
      "name": "tokenOfOwnerByIndex",
      "outputs": [
        {
          "internalType": "uint256",
          "name": "tokenId",
          "type": "uint256"
        }
      ],
      "stateMutability": "view",
      "type": "function"
    },
    {
      "inputs": [
        {
          "internalType": "uint256",
          "name": "tokenId",
          "type": "uint256"
        }
      ],
      "name": "tokenURI",
      "outputs": [
        {
          "internalType": "string",
          "name": "",
          "type": "string"
        }
      ],
      "stateMutability": "view",
      "type": "function"
    },
    {
      "inputs": [],
      "name": "totalSupply",
      "outputs": [
        {
          "internalType": "uint256",
          "name": "",
          "type": "uint256"
        }
      ],
      "stateMutability": "view",
      "type": "function"
    },
    {
      "inputs": [
        {
          "internalType": "address",
          "name": "from",
          "type": "address"
        },
        {
          "internalType": "address",
          "name": "to",
          "type": "address"
        },
        {
          "internalType": "uint256",
          "name": "tokenId",
          "type": "uint256"
        }
      ],
      "name": "transferFrom",
      "outputs": [],
      "stateMutability": "nonpayable",
      "type": "function"
    },
    {
      "inputs": [
        {
          "internalType": "address",
          "name": "newOwner",
          "type": "address"
        }
      ],
      "name": "transferOwnership",
      "outputs": [],
      "stateMutability": "nonpayable",
      "type": "function"
    },
    {
      "inputs": [],
      "name": "withdraw",
      "outputs": [],
      "stateMutability": "nonpayable",
      "type": "function"
    }
  ],
  "transactionHash": "0x2635c1efb17ceb79d7ae88255d222aea1bc429aca2055eddb1a5357e40622ab5",
  "args": [
    "ipfs://QmXZYx6jmchu5da85bipaMUXRrfTBurd6NrxYRt8Fj7LYe/",
    {
      "0": 18,
      "1": 187,
      "2": 192,
      "3": 63,
      "4": 187,
      "5": 7,
      "6": 76,
      "7": 204,
      "8": 49,
      "9": 142,
      "10": 123,
      "11": 222,
      "12": 13,
      "13": 58,
      "14": 43,
      "15": 140,
      "16": 240,
      "17": 13,
      "18": 199,
      "19": 22,
      "20": 95,
      "21": 17,
      "22": 190,
      "23": 241,
      "24": 145,
      "25": 161,
      "26": 105,
      "27": 190,
      "28": 177,
      "29": 249,
      "30": 24,
      "31": 70
    },
    "0xf57b2c51ded3a29e6891aba85459d600256cf317",
    100,
    10
  ],
  "numDeployments": 1,
  "solcInputHash": "4124c1cfa8aa7fac6347803b5b9cd6d2",
  "bytecode": "0x60a060405260016003553480156200001657600080fd5b506040516200408338038062004083833981016040819052620000399162000337565b604080518082018252600a8152694d79426f72656441706560b01b60208083019182528351808501909452600384526241504560e81b908401526000805460ff191690558151919291620000909160049162000249565b508051620000a690600590602084019062000249565b505050620000c3620000bd6200017e60201b60201c565b62000182565b6001600b5563ffffffff8083169082161115620001365760405162461bcd60e51b815260206004820152602660248201527f4c6f7720636f6c6c656374696f6e2073697a65206f7220686967682064657620604482015265185b5bdd5b9d60d21b60648201526084015b60405180910390fd5b6200014185620001d4565b601193909355600f80546001600160a01b0319166001600160a01b03939093169290921790915563ffffffff908116601055166080525062000495565b3390565b600a80546001600160a01b038381166001600160a01b0319831681179093556040519116919082907f8be0079c531659141344cd1fd0a4f28419497f9722a3daafe3b4186f6b6457e090600090a35050565b600a546001600160a01b03163314620002305760405162461bcd60e51b815260206004820181905260248201527f4f776e61626c653a2063616c6c6572206973206e6f7420746865206f776e657260448201526064016200012d565b80516200024590601290602084019062000249565b5050565b828054620002579062000458565b90600052602060002090601f0160209004810192826200027b5760008555620002c6565b82601f106200029657805160ff1916838001178555620002c6565b82800160010185558215620002c6579182015b82811115620002c6578251825591602001919060010190620002a9565b50620002d4929150620002d8565b5090565b5b80821115620002d45760008155600101620002d9565b634e487b7160e01b600052604160045260246000fd5b80516001600160a01b03811681146200031d57600080fd5b919050565b805163ffffffff811681146200031d57600080fd5b600080600080600060a086880312156200035057600080fd5b85516001600160401b03808211156200036857600080fd5b818801915088601f8301126200037d57600080fd5b815181811115620003925762000392620002ef565b604051601f8201601f19908116603f01168101908382118183101715620003bd57620003bd620002ef565b81604052828152602093508b84848701011115620003da57600080fd5b600091505b82821015620003fe5784820184015181830185015290830190620003df565b82821115620004105760008484830101525b80995050505080880151955050506200042c6040870162000305565b92506200043c6060870162000322565b91506200044c6080870162000322565b90509295509295909350565b600181811c908216806200046d57607f821691505b602082108114156200048f57634e487b7160e01b600052602260045260246000fd5b50919050565b608051613baf620004d4600039600081816108bf01528181610dd30152818161186c01528181611c4101528181611d820152611f550152613baf6000f3fe6080604052600436106102885760003560e01c80637cb647591161015a578063c4ae3168116100c1578063e985e9c51161007a578063e985e9c514610821578063ebf0c71714610841578063f2fde38b14610857578063f534b35714610877578063f8a987d814610897578063fbe1aa51146108ad57600080fd5b8063c4ae31681461076d578063c87b56dd14610782578063caf8a6d1146107a2578063d53150fc146107be578063d5abeb01146107eb578063d755f16a1461080157600080fd5b8063a22cb46511610113578063a22cb465146106ba578063a98c35eb146106da578063b1c3a047146106ed578063b390c0ab1461070d578063b88d4fde1461072d578063c34b16151461074d57600080fd5b80637cb64759146105825780637e6d3a5c146105a25780638da5cb5b146105b557806390aa0b0f146105d35780639231ab2a1461068557806395d89b41146106a557600080fd5b806342842e0e116101fe5780635cae01d3116101b75780635cae01d3146104db5780636352211e146104f15780636f8b44b01461051157806370a0823114610531578063715018a6146105515780637a1c4a561461056657600080fd5b806342842e0e146104165780634c1b4123146104365780634f6ccce71461046e57806355f804b31461048e57806359f369fe146104ae5780635c975abb146104c357600080fd5b806323b872dd1161025057806323b872dd146103615780632a09f2f2146103815780632f745c59146103a157806339ec95ac146103c15780633aecd0e3146103d45780633ccfd60b1461040157600080fd5b806301ffc9a71461028d57806306fdde03146102c2578063081812fc146102e4578063095ea7b31461031c57806318160ddd1461033e575b600080fd5b34801561029957600080fd5b506102ad6102a836600461319a565b6108f6565b60405190151581526020015b60405180910390f35b3480156102ce57600080fd5b506102d7610963565b6040516102b9919061320f565b3480156102f057600080fd5b506103046102ff366004613222565b6109f5565b6040516001600160a01b0390911681526020016102b9565b34801561032857600080fd5b5061033c610337366004613250565b610a85565b005b34801561034a57600080fd5b50610353610b9d565b6040519081526020016102b9565b34801561036d57600080fd5b5061033c61037c36600461327c565b610bb9565b34801561038d57600080fd5b5061033c61039c366004613222565b610bea565b3480156103ad57600080fd5b506103536103bc366004613250565b610c19565b61033c6103cf3660046132d4565b610ce2565b3480156103e057600080fd5b506103f46103ef3660046132ef565b610f81565b6040516102b9919061330c565b34801561040d57600080fd5b5061033c611067565b34801561042257600080fd5b5061033c61043136600461327c565b61117c565b34801561044257600080fd5b506104566104513660046132d4565b611197565b6040516001600160401b0390911681526020016102b9565b34801561047a57600080fd5b50610353610489366004613222565b611261565b34801561049a57600080fd5b5061033c6104a93660046133db565b611319565b3480156104ba57600080fd5b5061045661135a565b3480156104cf57600080fd5b5060005460ff166102ad565b3480156104e757600080fd5b5061045661025881565b3480156104fd57600080fd5b5061030461050c366004613222565b61138f565b34801561051d57600080fd5b5061033c61052c366004613222565b61139b565b34801561053d57600080fd5b5061035361054c3660046132ef565b611463565b34801561055d57600080fd5b5061033c611532565b34801561057257600080fd5b506104566706f05b59d3b2000081565b34801561058e57600080fd5b5061033c61059d366004613222565b611568565b61033c6105b0366004613423565b611597565b3480156105c157600080fd5b50600a546001600160a01b0316610304565b3480156105df57600080fd5b50600c54600d54600e5461062f9263ffffffff80821693600160201b808404831694600160401b8086046001600160401b0390811696600160801b90041694808316938304811692919091041688565b6040805163ffffffff998a16815297891660208901526001600160401b03968716908801529490931660608601526080850191909152841660a0840152831660c08301529190911660e0820152610100016102b9565b34801561069157600080fd5b506103046106a0366004613222565b611984565b3480156106b157600080fd5b506102d761198f565b3480156106c657600080fd5b5061033c6106d53660046134a8565b61199e565b61033c6106e83660046134e6565b611a63565b3480156106f957600080fd5b5061033c6107083660046132d4565b611d56565b34801561071957600080fd5b5061033c610728366004613502565b611e27565b34801561073957600080fd5b5061033c610748366004613524565b611e84565b34801561075957600080fd5b5061033c6107683660046135b7565b611eb6565b34801561077957600080fd5b5061033c6120df565b34801561078e57600080fd5b506102d761079d366004613222565b612123565b3480156107ae57600080fd5b5061045667016345785d8a000081565b3480156107ca57600080fd5b506103536107d93660046132ef565b60136020526000908152604090205481565b3480156107f757600080fd5b5061035360105481565b34801561080d57600080fd5b506102ad61081c36600461360b565b6121e8565b34801561082d57600080fd5b506102ad61083c366004613647565b61221b565b34801561084d57600080fd5b5061035360115481565b34801561086357600080fd5b5061033c6108723660046132ef565b6122e7565b34801561088357600080fd5b5061033c610892366004613675565b61237f565b3480156108a357600080fd5b5061045661384081565b3480156108b957600080fd5b506108e17f000000000000000000000000000000000000000000000000000000000000000081565b60405163ffffffff90911681526020016102b9565b60006001600160e01b031982166380ac58cd60e01b148061092757506001600160e01b03198216635b5e139f60e01b145b8061094257506001600160e01b0319821663780e9d6360e01b145b8061095d57506301ffc9a760e01b6001600160e01b03198316145b92915050565b606060048054610972906136af565b80601f016020809104026020016040519081016040528092919081815260200182805461099e906136af565b80156109eb5780601f106109c0576101008083540402835291602001916109eb565b820191906000526020600020905b8154815290600101906020018083116109ce57829003601f168201915b5050505050905090565b6000610a008261241e565b610a695760405162461bcd60e51b815260206004820152602f60248201527f4552433732315073693a20617070726f76656420717565727920666f72206e6f60448201526e3732bc34b9ba32b73a103a37b5b2b760891b60648201526084015b60405180910390fd5b506000908152600860205260409020546001600160a01b031690565b6000610a908261138f565b9050806001600160a01b0316836001600160a01b03161415610b005760405162461bcd60e51b8152602060048201526024808201527f4552433732315073693a20617070726f76616c20746f2063757272656e74206f6044820152633bb732b960e11b6064820152608401610a60565b336001600160a01b0382161480610b1c5750610b1c813361221b565b610b8e5760405162461bcd60e51b815260206004820152603b60248201527f4552433732315073693a20617070726f76652063616c6c6572206973206e6f7460448201527f206f776e6572206e6f7220617070726f76656420666f7220616c6c00000000006064820152608401610a60565b610b98838361245d565b505050565b6000610ba76124cb565b600754610bb49190613700565b905090565b610bc3338261252b565b610bdf5760405162461bcd60e51b8152600401610a6090613717565b610b988383836125f0565b600a546001600160a01b03163314610c145760405162461bcd60e51b8152600401610a609061376b565b600d55565b60008060005b600354811015610c8d57610c328161241e565b8015610c575750610c428161138f565b6001600160a01b0316856001600160a01b0316145b15610c7b5783821415610c6d57915061095d9050565b81610c77816137a0565b9250505b80610c85816137a0565b915050610c1f565b5060405162461bcd60e51b8152602060048201526024808201527f4552433732315073693a206f776e657220696e646578206f7574206f6620626f604482015263756e647360e01b6064820152608401610a60565b333214610d015760405162461bcd60e51b8152600401610a60906137bb565b60005460ff1615610d245760405162461bcd60e51b8152600401610a60906137f2565b600c5463ffffffff168015801590610d455750806001600160401b03164210155b610d915760405162461bcd60e51b815260206004820152601b60248201527f41756374696f6e20686173206e6f7420737461727465642079657400000000006044820152606401610a60565b6000826001600160401b031611610dba5760405162461bcd60e51b8152600401610a609061381c565b600e5463ffffffff908116906001600160401b038416907f000000000000000000000000000000000000000000000000000000000000000016610dfb610b9d565b610e05919061385e565b610e0f919061385e565b1115610e695760405162461bcd60e51b8152602060048201526024808201527f526573657276656420616d6f756e7420657863656564656420666f72206175636044820152633a34b7b760e11b6064820152608401610a60565b600e5433600090815260136020526040902054600160201b90910463ffffffff1690610e9f906001600160401b0385169061385e565b1115610eed5760405162461bcd60e51b815260206004820152601f60248201527f4e6f7420616c6c6f77656420746f206d696e74207468617420616d6f756e74006044820152606401610a60565b600082610ef983611197565b610f039190613876565b9050806001600160401b0316341015610f2e5760405162461bcd60e51b8152600401610a60906138a5565b610f4133846001600160401b0316612800565b33600090815260136020526040812080546001600160401b0386169290610f6990849061385e565b90915550610b9890506001600160401b03821661281a565b60606000610f8e83611463565b90506000816001600160401b03811115610faa57610faa613350565b604051908082528060200260200182016040528015610fd3578160200160208202803683370190505b50905081156110285760005b8281101561102057610ff18582610c19565b828281518110611003576110036138dc565b602090810291909101015280611018816137a0565b915050610fdf565b509392505050565b60405162461bcd60e51b81526020600482015260146024820152734f776e657220686173206e6f2062616c616e636560601b6044820152606401610a60565b600a546001600160a01b031633146110915760405162461bcd60e51b8152600401610a609061376b565b6002600b5414156110e45760405162461bcd60e51b815260206004820152601f60248201527f5265656e7472616e637947756172643a207265656e7472616e742063616c6c006044820152606401610a60565b6002600b55604051600090339047908381818185875af1925050503d806000811461112b576040519150601f19603f3d011682016040523d82523d6000602084013e611130565b606091505b50509050806111745760405162461bcd60e51b815260206004820152601060248201526f2a3930b739b332b9103330b4b632b21760811b6044820152606401610a60565b506001600b55565b610b9883838360405180602001604052806000815250611e84565b6000816001600160401b03164210156111b957506706f05b59d3b20000919050565b6138406111cf6001600160401b03841642613700565b106111e3575067016345785d8a0000919050565b60006102586111fb6001600160401b03851642613700565b6112059190613908565b9050611215610258613840613908565b61122f67016345785d8a00006706f05b59d3b2000061392e565b6112399190613908565b6112439082613876565b611255906706f05b59d3b2000061392e565b9392505050565b919050565b600061126b610b9d565b82106112c75760405162461bcd60e51b815260206004820152602560248201527f4552433732315073693a20676c6f62616c20696e646578206f7574206f6620626044820152646f756e647360d81b6064820152608401610a60565b6000805b600354811015611312576112de8161241e565b1561130057838214156112f2579392505050565b816112fc816137a0565b9250505b8061130a816137a0565b9150506112cb565b5050919050565b600a546001600160a01b031633146113435760405162461bcd60e51b8152600401610a609061376b565b80516113569060129060208401906130eb565b5050565b611368610258613840613908565b61138267016345785d8a00006706f05b59d3b2000061392e565b61138c9190613908565b81565b60008061102083612858565b600a546001600160a01b031633146113c55760405162461bcd60e51b8152600401610a609061376b565b6113cd610b9d565b811180156113dd57506010548111155b61145e5760405162461bcd60e51b815260206004820152604660248201527f416d6f756e742073686f756c642062652067726561746572207468616e20637560448201527f7272656e7420737570706c7920616e64206c6f776572207468616e206d617820606482015265737570706c7960d01b608482015260a401610a60565b601055565b60006001600160a01b0382166114d15760405162461bcd60e51b815260206004820152602d60248201527f4552433732315073693a2062616c616e636520717565727920666f722074686560448201526c207a65726f206164647265737360981b6064820152608401610a60565b6000805b60035481101561152b576114e88161241e565b1561151b576114f68161138f565b6001600160a01b0316846001600160a01b0316141561151b57611518826137a0565b91505b611524816137a0565b90506114d5565b5092915050565b600a546001600160a01b0316331461155c5760405162461bcd60e51b8152600401610a609061376b565b61156660006128ef565b565b600a546001600160a01b031633146115925760405162461bcd60e51b8152600401610a609061376b565b601155565b818161160e828280806020026020016040519081016040528093929190818152602001838360200280828437600092019190915250506011546040516bffffffffffffffffffffffff193360601b166020820152909250603401905060405160208183030381529060405280519060200120612941565b151560011461165f5760405162461bcd60e51b815260206004820152601b60248201527f596f7520617265206e6f7420616c6c6f77656420746f206d696e7400000000006044820152606401610a60565b33321461167e5760405162461bcd60e51b8152600401610a60906137bb565b60005460ff16156116a15760405162461bcd60e51b8152600401610a60906137f2565b600c54600160401b90046001600160401b0316806117015760405162461bcd60e51b815260206004820152601b60248201527f50726573616c6520686173206e6f7420737461727465642079657400000000006044820152606401610a60565b6000866001600160401b03161161172a5760405162461bcd60e51b8152600401610a609061381c565b600e54600160201b900463ffffffff166001600160401b03871611156117a25760405162461bcd60e51b815260206004820152602760248201527f52657175657374656420616d6f756e7420697320686967686572207468616e20604482015266185b1b1bddd95960ca1b6064820152608401610a60565b600e5433600090815260136020526040902054600160201b90910463ffffffff16906117d8906001600160401b0389169061385e565b111561185d5760405162461bcd60e51b815260206004820152604860248201527f596f7520616c7265616479206d696e74656420736f6d65206265666f72652c2060448201527f706c65617365207265636f6e73696465722074686520616d6f756e7420796f75606482015267081c995c5d595cdd60c21b608482015260a401610a60565b601054866001600160401b03167f000000000000000000000000000000000000000000000000000000000000000063ffffffff16611899610b9d565b6118a3919061385e565b6118ad919061385e565b11156118f15760405162461bcd60e51b81526020600482015260136024820152724578636565646564206d617820737570706c7960681b6044820152606401610a60565b60006118fd8783613876565b9050806001600160401b03163410156119285760405162461bcd60e51b8152600401610a60906138a5565b61193b33886001600160401b0316612800565b33600090815260136020526040812080546001600160401b038a16929061196390849061385e565b9091555061197b90506001600160401b03821661281a565b50505050505050565b600061095d8261138f565b606060058054610972906136af565b6001600160a01b0382163314156119f75760405162461bcd60e51b815260206004820152601c60248201527f4552433732315073693a20617070726f766520746f2063616c6c6572000000006044820152606401610a60565b3360008181526009602090815260408083206001600160a01b03871680855290835292819020805460ff191686151590811790915590519081529192917f17307eab39ab6107e8899845ad3d59bd9653f200f220920489ca2b5937696c31910160405180910390a35050565b333214611a825760405162461bcd60e51b8152600401610a60906137bb565b60005460ff1615611aa55760405162461bcd60e51b8152600401610a60906137f2565b600c54600d54600160801b9091046001600160401b0316908214611b0b5760405162461bcd60e51b815260206004820152601960248201527f496e636f7272656374207075626c69632073616c65206b6579000000000000006044820152606401610a60565b600c54600d54611b3991600160801b81046001600160401b03169190600160201b900463ffffffff166121e8565b611b855760405162461bcd60e51b815260206004820152601e60248201527f5075626c696373616c6520686173206e6f7420737461727465642079657400006044820152606401610a60565b6000836001600160401b031611611bae5760405162461bcd60e51b8152600401610a609061381c565b600e5433600090815260136020526040902054600160401b90910463ffffffff1690611be4906001600160401b0386169061385e565b1115611c325760405162461bcd60e51b815260206004820152601f60248201527f4e6f7420616c6c6f77656420746f206d696e74207468617420616d6f756e74006044820152606401610a60565b601054836001600160401b03167f000000000000000000000000000000000000000000000000000000000000000063ffffffff16611c6e610b9d565b611c78919061385e565b611c82919061385e565b1115611cc65760405162461bcd60e51b81526020600482015260136024820152724578636565646564206d617820737570706c7960681b6044820152606401610a60565b6000611cd28483613876565b9050806001600160401b0316341015611cfd5760405162461bcd60e51b8152600401610a60906138a5565b611d1033856001600160401b0316612800565b33600090815260136020526040812080546001600160401b0387169290611d3890849061385e565b90915550611d5090506001600160401b03821661281a565b50505050565b600a546001600160a01b03163314611d805760405162461bcd60e51b8152600401610a609061376b565b7f000000000000000000000000000000000000000000000000000000000000000063ffffffff16816001600160401b0316611db9610b9d565b611dc3919061385e565b1115611e115760405162461bcd60e51b815260206004820152601860248201527f457863656564656420726573657276656420616d6f756e7400000000000000006044820152606401610a60565b611e2433826001600160401b0316612800565b50565b600a546001600160a01b03163314611e515760405162461bcd60e51b8152600401610a609061376b565b815b818111610b9857611e64338261252b565b15611e7257611e7281612957565b80611e7c816137a0565b915050611e53565b611e8e338361252b565b611eaa5760405162461bcd60e51b8152600401610a6090613717565b611d50848484846129ab565b600a546001600160a01b03163314611ee05760405162461bcd60e51b8152600401610a609061376b565b63ffffffff841615801590611efb5750428463ffffffff1610155b611f535760405162461bcd60e51b8152602060048201526024808201527f496e76616c696420656e74727920666f722061756374696f6e2073746172742060448201526374696d6560e01b6064820152608401610a60565b7f000000000000000000000000000000000000000000000000000000000000000063ffffffff16601054611f879190613700565b8363ffffffff1611156120025760405162461bcd60e51b815260206004820152603b60248201527f5468657265206973206e6f7420656e6f75676820737570706c7920746f20636f60448201527f766572207468617420616d6f756e7420666f722061756374696f6e00000000006064820152608401610a60565b8163ffffffff168163ffffffff1610156120845760405162461bcd60e51b815260206004820152603960248201527f4d6178206c696d69742073686f756c642062652067726561746572206f72206560448201527f7175616c20746f207468652070726573616c65206c696d6974000000000000006064820152608401610a60565b600c805463ffffffff95861663ffffffff19909116179055600e8054918516600160401b026bffffffff000000000000000019938616600160201b0267ffffffffffffffff1990931694909516939093171716919091179055565b600a546001600160a01b031633146121095760405162461bcd60e51b8152600401610a609061376b565b60005460ff1661211b576115666129e0565b611566612a55565b606061212e8261241e565b61218d5760405162461bcd60e51b815260206004820152602a60248201527f4552433732315073693a2055524920717565727920666f72206e6f6e657869736044820152693a32b73a103a37b5b2b760b11b6064820152608401610a60565b6000612197612acf565b905060008151116121b75760405180602001604052806000815250611255565b806121c184612ade565b6040516020016121d2929190613956565b6040516020818303038152906040529392505050565b60006001600160401b0384161580159061220157508215155b80156122135750428263ffffffff1611155b949350505050565b600f5460405163c455279160e01b81526001600160a01b03848116600483015260009281169190841690829063c45527919060240160206040518083038186803b15801561226857600080fd5b505afa15801561227c573d6000803e3d6000fd5b505050506040513d601f19601f820116820180604052508101906122a09190613985565b6001600160a01b031614156122b957600191505061095d565b6001600160a01b0380851660009081526009602090815260408083209387168352929052205460ff16612213565b600a546001600160a01b031633146123115760405162461bcd60e51b8152600401610a609061376b565b6001600160a01b0381166123765760405162461bcd60e51b815260206004820152602660248201527f4f776e61626c653a206e6577206f776e657220697320746865207a65726f206160448201526564647265737360d01b6064820152608401610a60565b611e24816128ef565b600a546001600160a01b031633146123a95760405162461bcd60e51b8152600401610a609061376b565b600c805477ffffffffffffffffffffffffffffffff00000000000000001916600160401b6001600160401b039586160267ffffffffffffffff60801b191617600160801b93909416929092029290921767ffffffff000000001916600160201b63ffffffff9390931692909202919091179055565b600881901c600090815260026020526040812054600160ff1b60ff84161c16151580612448575081155b1561245557506000919050565b506003541190565b600081815260086020526040902080546001600160a01b0319166001600160a01b03841690811790915581906124928261138f565b6001600160a01b03167f8c5be1e5ebec7d5bd14f71427d1e84f3dd0314c0f7b2291e5b200ac8c7c3b92560405160405180910390a45050565b6000806008600754901c60016124e1919061385e565b905060005b818110156125265760008181526002602052604090205461250681612bdb565b612510908561385e565b935050808061251e906137a0565b9150506124e6565b505090565b60006125368261241e565b61259a5760405162461bcd60e51b815260206004820152602f60248201527f4552433732315073693a206f70657261746f7220717565727920666f72206e6f60448201526e3732bc34b9ba32b73a103a37b5b2b760891b6064820152608401610a60565b60006125a58361138f565b9050806001600160a01b0316846001600160a01b031614806125e05750836001600160a01b03166125d5846109f5565b6001600160a01b0316145b806122135750612213818561221b565b60005460ff16156126135760405162461bcd60e51b8152600401610a60906137f2565b60008061261f83612858565b91509150846001600160a01b0316826001600160a01b0316146126995760405162461bcd60e51b815260206004820152602c60248201527f4552433732315073693a207472616e73666572206f6620746f6b656e2074686160448201526b3a1034b9903737ba1037bbb760a11b6064820152608401610a60565b6001600160a01b0384166126ff5760405162461bcd60e51b815260206004820152602760248201527f4552433732315073693a207472616e7366657220746f20746865207a65726f206044820152666164647265737360c81b6064820152608401610a60565b61270a60008461245d565b600061271784600161385e565b600881901c600090815260016020526040902054909150600160ff1b60ff83161c16158015612747575060035481105b1561277e57600081815260066020526040902080546001600160a01b0319166001600160a01b03881617905561277e600182612bf5565b600084815260066020526040902080546001600160a01b0319166001600160a01b0387161790558184146127b7576127b7600185612bf5565b83856001600160a01b0316876001600160a01b03167fddf252ad1be2c89b69c2b068fc378daa952ba7f163c4a11628f55a4df523b3ef60405160405180910390a4505050505050565b611356828260405180602001604052806000815250612c21565b80341115611e2457336108fc6128308334613700565b6040518115909202916000818181858888f19350505050158015611356573d6000803e3d6000fd5b6000806128648361241e565b6128c55760405162461bcd60e51b815260206004820152602c60248201527f4552433732315073693a206f776e657220717565727920666f72206e6f6e657860448201526b34b9ba32b73a103a37b5b2b760a11b6064820152608401610a60565b6128ce83612c3c565b6000818152600660205260409020546001600160a01b031694909350915050565b600a80546001600160a01b038381166001600160a01b0319831681179093556040519116919082907f8be0079c531659141344cd1fd0a4f28419497f9722a3daafe3b4186f6b6457e090600090a35050565b60008261294e8584612c49565b14949350505050565b60006129628261138f565b905061296f600283612bf5565b60405182906000906001600160a01b038416907fddf252ad1be2c89b69c2b068fc378daa952ba7f163c4a11628f55a4df523b3ef908390a45050565b6129b68484846125f0565b6129c4848484600185612cb5565b611d505760405162461bcd60e51b8152600401610a60906139a2565b60005460ff1615612a035760405162461bcd60e51b8152600401610a60906137f2565b6000805460ff191660011790557f62e78cea01bee320cd4e420270b5ea74000d11b0c9f74754ebdbfc544b05a258612a383390565b6040516001600160a01b03909116815260200160405180910390a1565b60005460ff16612a9e5760405162461bcd60e51b815260206004820152601460248201527314185d5cd8589b194e881b9bdd081c185d5cd95960621b6044820152606401610a60565b6000805460ff191690557f5db9ee0a495bf2e6ff9c91a7834c1ba4fdd244a5e8aa4e537bd38aeae4b073aa33612a38565b606060128054610972906136af565b606081612b025750506040805180820190915260018152600360fc1b602082015290565b8160005b8115612b2c5780612b16816137a0565b9150612b259050600a836139f7565b9150612b06565b6000816001600160401b03811115612b4657612b46613350565b6040519080825280601f01601f191660200182016040528015612b70576020820181803683370190505b5090505b841561221357612b85600183613700565b9150612b92600a86613a0b565b612b9d90603061385e565b60f81b818381518110612bb257612bb26138dc565b60200101906001600160f81b031916908160001a905350612bd4600a866139f7565b9450612b74565b60005b811561125c57600019820190911690600101612bde565b600881901c600090815260209290925260409091208054600160ff1b60ff9093169290921c9091179055565b600354612c2e8484612df8565b6129c4600085838686612cb5565b600061095d600183612f74565b600081815b8451811015611020576000858281518110612c6b57612c6b6138dc565b60200260200101519050808311612c915760008381526020829052604090209250612ca2565b600081815260208490526040902092505b5080612cad816137a0565b915050612c4e565b60006001600160a01b0385163b15612deb57506001835b612cd6848661385e565b811015612de557604051630a85bd0160e11b81526001600160a01b0387169063150b7a0290612d0f9033908b9086908990600401613a1f565b602060405180830381600087803b158015612d2957600080fd5b505af1925050508015612d59575060408051601f3d908101601f19168201909252612d5691810190613a5c565b60015b612db3573d808015612d87576040519150601f19603f3d011682016040523d82523d6000602084013e612d8c565b606091505b508051612dab5760405162461bcd60e51b8152600401610a60906139a2565b805181602001fd5b828015612dd057506001600160e01b03198116630a85bd0160e11b145b92505080612ddd816137a0565b915050612ccc565b50612def565b5060015b95945050505050565b60035481612e5e5760405162461bcd60e51b815260206004820152602d60248201527f4552433732315073693a207175616e74697479206d757374206265206772656160448201526c746572207468616e207a65726f60981b6064820152608401610a60565b6001600160a01b038316612ec05760405162461bcd60e51b815260206004820152602360248201527f4552433732315073693a206d696e7420746f20746865207a65726f206164647260448201526265737360e81b6064820152608401610a60565b8160076000828254612ed2919061385e565b9091555050600081815260066020526040902080546001600160a01b0319166001600160a01b038516179055612f09600182612bf5565b805b612f15838361385e565b811015611d505760405181906001600160a01b038616906000907fddf252ad1be2c89b69c2b068fc378daa952ba7f163c4a11628f55a4df523b3ef908290a4612f5f81600161385e565b60035580612f6c816137a0565b915050612f0b565b600881901c60008181526020849052604081205490919060ff808516919082181c8015612fb957612fa481613069565b60ff168203600884901b17935050505061095d565b600083116130265760405162461bcd60e51b815260206004820152603460248201527f4269744d6170733a205468652073657420626974206265666f7265207468652060448201527334b73232bc103237b2b9b713ba1032bc34b9ba1760611b6064820152608401610a60565b5060001990910160008181526020869052604090205490919080156130645761304e81613069565b60ff0360ff16600884901b17935050505061095d565b612fb9565b60006040518061012001604052806101008152602001613a7a610100913960f87e818283848586878898a8b8c8d8e8f929395969799a9b9d9e9faaeb6bedeeff6130b2856130d3565b02901c815181106130c5576130c56138dc565b016020015160f81c92915050565b60008082116130e157600080fd5b5060008190031690565b8280546130f7906136af565b90600052602060002090601f016020900481019282613119576000855561315f565b82601f1061313257805160ff191683800117855561315f565b8280016001018555821561315f579182015b8281111561315f578251825591602001919060010190613144565b5061316b92915061316f565b5090565b5b8082111561316b5760008155600101613170565b6001600160e01b031981168114611e2457600080fd5b6000602082840312156131ac57600080fd5b813561125581613184565b60005b838110156131d25781810151838201526020016131ba565b83811115611d505750506000910152565b600081518084526131fb8160208601602086016131b7565b601f01601f19169290920160200192915050565b60208152600061125560208301846131e3565b60006020828403121561323457600080fd5b5035919050565b6001600160a01b0381168114611e2457600080fd5b6000806040838503121561326357600080fd5b823561326e8161323b565b946020939093013593505050565b60008060006060848603121561329157600080fd5b833561329c8161323b565b925060208401356132ac8161323b565b929592945050506040919091013590565b80356001600160401b038116811461125c57600080fd5b6000602082840312156132e657600080fd5b611255826132bd565b60006020828403121561330157600080fd5b81356112558161323b565b6020808252825182820181905260009190848201906040850190845b8181101561334457835183529284019291840191600101613328565b50909695505050505050565b634e487b7160e01b600052604160045260246000fd5b60006001600160401b038084111561338057613380613350565b604051601f8501601f19908116603f011681019082821181831017156133a8576133a8613350565b816040528093508581528686860111156133c157600080fd5b858560208301376000602087830101525050509392505050565b6000602082840312156133ed57600080fd5b81356001600160401b0381111561340357600080fd5b8201601f8101841361341457600080fd5b61221384823560208401613366565b60008060006040848603121561343857600080fd5b613441846132bd565b925060208401356001600160401b038082111561345d57600080fd5b818601915086601f83011261347157600080fd5b81358181111561348057600080fd5b8760208260051b850101111561349557600080fd5b6020830194508093505050509250925092565b600080604083850312156134bb57600080fd5b82356134c68161323b565b9150602083013580151581146134db57600080fd5b809150509250929050565b600080604083850312156134f957600080fd5b61326e836132bd565b6000806040838503121561351557600080fd5b50508035926020909101359150565b6000806000806080858703121561353a57600080fd5b84356135458161323b565b935060208501356135558161323b565b92506040850135915060608501356001600160401b0381111561357757600080fd5b8501601f8101871361358857600080fd5b61359787823560208401613366565b91505092959194509250565b803563ffffffff8116811461125c57600080fd5b600080600080608085870312156135cd57600080fd5b6135d6856135a3565b93506135e4602086016135a3565b92506135f2604086016135a3565b9150613600606086016135a3565b905092959194509250565b60008060006060848603121561362057600080fd5b613629846132bd565b92506020840135915061363e604085016135a3565b90509250925092565b6000806040838503121561365a57600080fd5b82356136658161323b565b915060208301356134db8161323b565b60008060006060848603121561368a57600080fd5b613693846132bd565b92506136a1602085016132bd565b915061363e604085016135a3565b600181811c908216806136c357607f821691505b602082108114156136e457634e487b7160e01b600052602260045260246000fd5b50919050565b634e487b7160e01b600052601160045260246000fd5b600082821015613712576137126136ea565b500390565b60208082526034908201527f4552433732315073693a207472616e736665722063616c6c6572206973206e6f6040820152731d081bdddb995c881b9bdc88185c1c1c9bdd995960621b606082015260800190565b6020808252818101527f4f776e61626c653a2063616c6c6572206973206e6f7420746865206f776e6572604082015260600190565b60006000198214156137b4576137b46136ea565b5060010190565b6020808252601e908201527f5468652063616c6c657220697320616e6f7468657220636f6e74726163740000604082015260600190565b60208082526010908201526f14185d5cd8589b194e881c185d5cd95960821b604082015260600190565b60208082526022908201527f416d6f756e742073686f756c642062652067726561746572207468616e207a65604082015261726f60f01b606082015260800190565b60008219821115613871576138716136ea565b500190565b60006001600160401b038083168185168183048111821515161561389c5761389c6136ea565b02949350505050565b6020808252601f908201527f5061796d656e74206973206c6f776572207468616e206e656365737361727900604082015260600190565b634e487b7160e01b600052603260045260246000fd5b634e487b7160e01b600052601260045260246000fd5b60006001600160401b0380841680613922576139226138f2565b92169190910492915050565b60006001600160401b038381169083168181101561394e5761394e6136ea565b039392505050565b600083516139688184602088016131b7565b83519083019061397c8183602088016131b7565b01949350505050565b60006020828403121561399757600080fd5b81516112558161323b565b60208082526035908201527f4552433732315073693a207472616e7366657220746f206e6f6e20455243373260408201527418a932b1b2b4bb32b91034b6b83632b6b2b73a32b960591b606082015260800190565b600082613a0657613a066138f2565b500490565b600082613a1a57613a1a6138f2565b500690565b6001600160a01b0385811682528416602082015260408101839052608060608201819052600090613a52908301846131e3565b9695505050505050565b600060208284031215613a6e57600080fd5b81516112558161318456fe0001020903110a19042112290b311a3905412245134d2a550c5d32651b6d3a7506264262237d468514804e8d2b95569d0d495ea533a966b11c886eb93bc176c9071727374353637324837e9b47af86c7155181ad4fd18ed32c9096db57d59ee30e2e4a6a5f92a6be3498aae067ddb2eb1d5989b56fd7baf33ca0c2ee77e5caf7ff0810182028303840444c545c646c7425617c847f8c949c48a4a8b087b8c0c816365272829aaec650acd0d28fdad4e22d6991bd97dfdcea58b4d6f29fede4f6fe0f1f2f3f4b5b6b607b8b93a3a7b7bf357199c5abcfd9e168bcdee9b3f1ecf5fd1e3e5a7a8aa2b670c4ced8bbe8f0f4fc3d79a1c3cde7effb78cce6facbf9f8a2646970667358221220b3fccfedb5acff6d1d42e4455420b721807c5ead68691c7f603e90f4179ec11264736f6c63430008090033",
  "devdoc": {
    "kind": "dev",
    "methods": {
      "approve(address,uint256)": {
        "details": "See {IERC721-approve}."
      },
      "balanceOf(address)": {
        "details": "See {IERC721-balanceOf}."
      },
      "getApproved(uint256)": {
        "details": "See {IERC721-getApproved}."
      },
      "name()": {
        "details": "See {IERC721Metadata-name}."
      },
      "owner()": {
        "details": "Returns the address of the current owner."
      },
      "ownerOf(uint256)": {
        "details": "See {IERC721-ownerOf}."
      },
      "paused()": {
        "details": "Returns true if the contract is paused, and false otherwise."
      },
      "renounceOwnership()": {
        "details": "Leaves the contract without owner. It will not be possible to call `onlyOwner` functions anymore. Can only be called by the current owner. NOTE: Renouncing ownership will leave the contract without an owner, thereby removing any functionality that is only available to the owner."
      },
      "safeTransferFrom(address,address,uint256)": {
        "details": "See {IERC721-safeTransferFrom}."
      },
      "safeTransferFrom(address,address,uint256,bytes)": {
        "details": "See {IERC721-safeTransferFrom}."
      },
      "setApprovalForAll(address,bool)": {
        "details": "See {IERC721-setApprovalForAll}."
      },
      "supportsInterface(bytes4)": {
        "details": "See {IERC165-supportsInterface}."
      },
      "symbol()": {
        "details": "See {IERC721Metadata-symbol}."
      },
      "tokenByIndex(uint256)": {
        "details": "See {IERC721Enumerable-tokenByIndex}."
      },
      "tokenOfOwnerByIndex(address,uint256)": {
        "details": "See {IERC721Enumerable-tokenOfOwnerByIndex}."
      },
      "tokenURI(uint256)": {
        "details": "See {IERC721Metadata-tokenURI}."
      },
      "totalSupply()": {
        "details": "See {IERC721Enumerable-totalSupply}."
      },
      "transferFrom(address,address,uint256)": {
        "details": "See {IERC721-transferFrom}."
      },
      "transferOwnership(address)": {
        "details": "Transfers ownership of the contract to a new account (`newOwner`). Can only be called by the current owner."
      }
    },
    "version": 1
  },
  "userdoc": {
    "kind": "user",
    "methods": {
      "isApprovedForAll(address,address)": {
        "notice": "Override isApprovedForAll to whitelist user's OpenSea proxy accounts to enable gas-less listings."
      }
    },
    "version": 1
  },
  "storageLayout": {
    "storage": [
      {
        "astId": 122,
        "contract": "contracts/MyBoredApe.sol:MyBoredApe",
        "label": "_paused",
        "offset": 0,
        "slot": "0",
        "type": "t_bool"
      },
      {
        "astId": 1176,
        "contract": "contracts/MyBoredApe.sol:MyBoredApe",
        "label": "_batchHead",
        "offset": 0,
        "slot": "1",
        "type": "t_struct(BitMap)3303_storage"
      },
      {
        "astId": 1179,
        "contract": "contracts/MyBoredApe.sol:MyBoredApe",
        "label": "_burnedToken",
        "offset": 0,
        "slot": "2",
        "type": "t_struct(BitMap)3303_storage"
      },
      {
        "astId": 1182,
        "contract": "contracts/MyBoredApe.sol:MyBoredApe",
        "label": "currentIndex",
        "offset": 0,
        "slot": "3",
        "type": "t_uint256"
      },
      {
        "astId": 1184,
        "contract": "contracts/MyBoredApe.sol:MyBoredApe",
        "label": "_name",
        "offset": 0,
        "slot": "4",
        "type": "t_string_storage"
      },
      {
        "astId": 1186,
        "contract": "contracts/MyBoredApe.sol:MyBoredApe",
        "label": "_symbol",
        "offset": 0,
        "slot": "5",
        "type": "t_string_storage"
      },
      {
        "astId": 1190,
        "contract": "contracts/MyBoredApe.sol:MyBoredApe",
        "label": "_owners",
        "offset": 0,
        "slot": "6",
        "type": "t_mapping(t_uint256,t_address)"
      },
      {
        "astId": 1192,
        "contract": "contracts/MyBoredApe.sol:MyBoredApe",
        "label": "_minted",
        "offset": 0,
        "slot": "7",
        "type": "t_uint256"
      },
      {
        "astId": 1196,
        "contract": "contracts/MyBoredApe.sol:MyBoredApe",
        "label": "_tokenApprovals",
        "offset": 0,
        "slot": "8",
        "type": "t_mapping(t_uint256,t_address)"
      },
      {
        "astId": 1202,
        "contract": "contracts/MyBoredApe.sol:MyBoredApe",
        "label": "_operatorApprovals",
        "offset": 0,
        "slot": "9",
        "type": "t_mapping(t_address,t_mapping(t_address,t_bool))"
      },
      {
        "astId": 7,
        "contract": "contracts/MyBoredApe.sol:MyBoredApe",
        "label": "_owner",
        "offset": 0,
        "slot": "10",
        "type": "t_address"
      },
      {
        "astId": 207,
        "contract": "contracts/MyBoredApe.sol:MyBoredApe",
        "label": "_status",
        "offset": 0,
        "slot": "11",
        "type": "t_uint256"
      },
      {
        "astId": 2383,
        "contract": "contracts/MyBoredApe.sol:MyBoredApe",
        "label": "saleConfig",
        "offset": 0,
        "slot": "12",
        "type": "t_struct(SaleConfig)2380_storage"
      },
      {
        "astId": 2385,
        "contract": "contracts/MyBoredApe.sol:MyBoredApe",
        "label": "proxyRegistryAddress",
        "offset": 0,
        "slot": "15",
        "type": "t_address"
      },
      {
        "astId": 2387,
        "contract": "contracts/MyBoredApe.sol:MyBoredApe",
        "label": "maxSupply",
        "offset": 0,
        "slot": "16",
        "type": "t_uint256"
      },
      {
        "astId": 2391,
        "contract": "contracts/MyBoredApe.sol:MyBoredApe",
        "label": "root",
        "offset": 0,
        "slot": "17",
        "type": "t_bytes32"
      },
      {
        "astId": 2393,
        "contract": "contracts/MyBoredApe.sol:MyBoredApe",
        "label": "_baseTokenURI",
        "offset": 0,
        "slot": "18",
        "type": "t_string_storage"
      },
      {
        "astId": 2397,
        "contract": "contracts/MyBoredApe.sol:MyBoredApe",
        "label": "_amountMinted",
        "offset": 0,
        "slot": "19",
        "type": "t_mapping(t_address,t_uint256)"
      }
    ],
    "types": {
      "t_address": {
        "encoding": "inplace",
        "label": "address",
        "numberOfBytes": "20"
      },
      "t_bool": {
        "encoding": "inplace",
        "label": "bool",
        "numberOfBytes": "1"
      },
      "t_bytes32": {
        "encoding": "inplace",
        "label": "bytes32",
        "numberOfBytes": "32"
      },
      "t_mapping(t_address,t_bool)": {
        "encoding": "mapping",
        "key": "t_address",
        "label": "mapping(address => bool)",
        "numberOfBytes": "32",
        "value": "t_bool"
      },
      "t_mapping(t_address,t_mapping(t_address,t_bool))": {
        "encoding": "mapping",
        "key": "t_address",
        "label": "mapping(address => mapping(address => bool))",
        "numberOfBytes": "32",
        "value": "t_mapping(t_address,t_bool)"
      },
      "t_mapping(t_address,t_uint256)": {
        "encoding": "mapping",
        "key": "t_address",
        "label": "mapping(address => uint256)",
        "numberOfBytes": "32",
        "value": "t_uint256"
      },
      "t_mapping(t_uint256,t_address)": {
        "encoding": "mapping",
        "key": "t_uint256",
        "label": "mapping(uint256 => address)",
        "numberOfBytes": "32",
        "value": "t_address"
      },
      "t_mapping(t_uint256,t_uint256)": {
        "encoding": "mapping",
        "key": "t_uint256",
        "label": "mapping(uint256 => uint256)",
        "numberOfBytes": "32",
        "value": "t_uint256"
      },
      "t_string_storage": {
        "encoding": "bytes",
        "label": "string",
        "numberOfBytes": "32"
      },
      "t_struct(BitMap)3303_storage": {
        "encoding": "inplace",
        "label": "struct BitMaps.BitMap",
        "members": [
          {
            "astId": 3302,
            "contract": "contracts/MyBoredApe.sol:MyBoredApe",
            "label": "_data",
            "offset": 0,
            "slot": "0",
            "type": "t_mapping(t_uint256,t_uint256)"
          }
        ],
        "numberOfBytes": "32"
      },
      "t_struct(SaleConfig)2380_storage": {
        "encoding": "inplace",
        "label": "struct MyBoredApe.SaleConfig",
        "members": [
          {
            "astId": 2365,
            "contract": "contracts/MyBoredApe.sol:MyBoredApe",
            "label": "auctionSaleStartTime",
            "offset": 0,
            "slot": "0",
            "type": "t_uint32"
          },
          {
            "astId": 2367,
            "contract": "contracts/MyBoredApe.sol:MyBoredApe",
            "label": "publicSaleStartTime",
            "offset": 4,
            "slot": "0",
            "type": "t_uint32"
          },
          {
            "astId": 2369,
            "contract": "contracts/MyBoredApe.sol:MyBoredApe",
            "label": "allowlistPrice",
            "offset": 8,
            "slot": "0",
            "type": "t_uint64"
          },
          {
            "astId": 2371,
            "contract": "contracts/MyBoredApe.sol:MyBoredApe",
            "label": "publicPrice",
            "offset": 16,
            "slot": "0",
            "type": "t_uint64"
          },
          {
            "astId": 2373,
            "contract": "contracts/MyBoredApe.sol:MyBoredApe",
            "label": "publicSaleKey",
            "offset": 0,
            "slot": "1",
            "type": "t_uint256"
          },
          {
            "astId": 2375,
            "contract": "contracts/MyBoredApe.sol:MyBoredApe",
            "label": "auctionSaleAmountLimit",
            "offset": 0,
            "slot": "2",
            "type": "t_uint32"
          },
          {
            "astId": 2377,
            "contract": "contracts/MyBoredApe.sol:MyBoredApe",
            "label": "preSaleAmountPerAddress",
            "offset": 4,
            "slot": "2",
            "type": "t_uint32"
          },
          {
            "astId": 2379,
            "contract": "contracts/MyBoredApe.sol:MyBoredApe",
            "label": "maxAmountPerAddress",
            "offset": 8,
            "slot": "2",
            "type": "t_uint32"
          }
        ],
        "numberOfBytes": "96"
      },
      "t_uint256": {
        "encoding": "inplace",
        "label": "uint256",
        "numberOfBytes": "32"
      },
      "t_uint32": {
        "encoding": "inplace",
        "label": "uint32",
        "numberOfBytes": "4"
      },
      "t_uint64": {
        "encoding": "inplace",
        "label": "uint64",
        "numberOfBytes": "8"
      }
    }
  }
}